:020000040800F2
:1000000000800120590B0008AD080008B108000865
:10001000B5080008B9080008BD0800080000000085
:10002000000000000000000000000000C1080008FF
:10003000C508000800000000C9080008CD08000835
:10004000A90B0008A90B0008A90B0008A90B0008C0
:10005000A90B0008A90B0008A90B0008A90B0008B0
:10006000A90B0008A90B0008A90B0008D10800087B
:10007000A90B0008A90B0008A90B0008A90B000890
:10008000A90B0008DD080008A90B0008A90B00084F
:10009000A90B0008A90B0008A90B0008A90B000870
:1000A000A90B0008A90B0008A90B0008A90B000860
:1000B000A90B0008A90B0008A90B0008A90B000850
:1000C000A90B0008A90B0008A90B0008A90B000840
:1000D000A90B0008A90B0008A90B0008A90B000830
:1000E000A90B0008A90B0008A90B0008A90B000820
:1000F000A90B0008A90B0008A90B0008A90B000810
:10010000A90B0008A90B0008A90B0008A90B0008FF
:10011000A90B0008A90B0008E9080008A90B0008B2
:10012000A90B0008A90B0008A90B0008A90B0008DF
:10013000A90B0008A90B0008A90B0008A90B0008CF
:10014000A90B0008A90B0008A90B0008A90B0008BF
:10015000A90B0008A90B0008A90B0008A90B0008AF
:10016000A90B0008A90B0008A90B0008A90B00089F
:10017000A90B0008A90B0008A90B0008000000004B
:08018000A90B0008A90B0008FF
:1001880010B5054C237833B9044B13B10448AFF3C9
:1001980000800123237010BD100000200000000023
:1001A8000837000808B5034B1BB103490348AFF3F0
:1001B800008008BD00000000140000200837000877
:1001C80053B94AB9002908BF00281CBF4FF0FF31B6
:1001D8004FF0FF3000F06AB9ADF1080C6DE904CEBC
:1001E80000F006F8DDF804E0DDE9022304B070470A
:1001F8002DE9F047089D0C46002B4ED194468C45BE
:100208008646B2FA82F262D94AB1C2F1200391401D
:1002180020FA03F30CFA02FC194300FA02FE4FEA33
:100228001C471FFA8CF6B1FBF7F44FEA1E4307FB95
:10023800141143EA014304FB06F199420AD91CEB65
:10024800030304F1FF3080F01281994240F20F81DC
:10025800023C6344591A1FFA8EF3B1FBF7F007FB0F
:10026800101143EA014300FB06F69E420AD91CEB33
:10027800030300F1FF3180F0FC809E4240F2F980D8
:10028800634402389B1B40EA044000211DB1D3405F
:100298000022C5E90032BDE8F0878B4205D90DB1CF
:1002A800C5E9000100210846F5E7B3FA83F1002902
:1002B80046D1A34202D39042C0F0F080861A64EB84
:1002C80003030120002DE6D0C5E90063E3E7002A17
:1002D80040F09080A1EB0C044FEA1C481FFA8CF701
:1002E8000121B4FBF8F64FEA1E4308FB164443EA23
:1002F800044307FB06F0984208D91CEB030306F1F8
:10030800FF3402D2984200F2CD8026461C1A1FFA0A
:100318008EF3B4FBF8F008FB104443EA044300FBF7
:1003280007F79F4208D91CEB030300F1FF3402D200
:100338009F4200F2B0802046DB1B40EA0640A5E75A
:10034800C1F120068B4022FA06F71F4320FA06FC6B
:1003580004FA01F343EA0C03F44000FA01F8380CFC
:100368004FEA1349B4FBF0FE1FFA87FC00FB1E445A
:1003780049EA04440EFB0CF9A14502FA01F20AD934
:100388003C190EF1FF3A80F08480A14540F281804B
:10039800AEF1020E3C44A4EB09041FFA83F9B4FB46
:1003A800F0F300FB134449EA044403FB0CFCA445A6
:1003B80007D93C1903F1FF3067D2A44565D9023B40
:1003C8003C4443EA0E40A0FB0293A4EB0C049C427D
:1003D800CE469C4651D34ED055B1B8EB0E0364EBD4
:1003E8000C0404FA06F6CB401E43CC40C5E9006471
:1003F800002150E7C2F1200320FA03F10CFA02FCB5
:1004080024FA03F394400C434FEA1C4800FA02FE16
:100418001FFA8CF7B3FBF8F008FB1031230C43EA02
:10042800014300FB07F1994208D91CEB030300F1D3
:10043800FF362CD299422AD9023863445B1AA4B2F7
:10044800B3FBF8F108FB113344EA034401FB07F35B
:10045800A34208D91CEB040401F1FF3613D2A342CE
:1004680011D902396444E41A41EA004139E70446E3
:10047800F0E6084606E7C845AED2B9EB020E63EBD4
:10048800070C0138A8E73146EDE7034699E73046FF
:10049800D4E7D6467FE7634402384DE7064623464D
:1004A80008460FE7023E634430E700BF704700BFCD
:1004B80080B584B000AF78607B681B68144A9342AB
:1004C80022D1144B1B685B6AFB60134B1B68FA68EC
:1004D8009A4209D3FB68DAB20F4B1B68DBB2D31A16
:1004E800DAB20E4B1A7008E0FB68DAB20A4B1B68E6
:1004F800DBB2D31ADAB2094B1A70074AFB681360E9
:100508000821074801F098FB00BF1037BD4680BDA1
:100518000000045038010020DC000020D800002032
:100528000008004830B525482549016004218BB0F2
:1005380041614FF480710023012201834FF48051FF
:10054800CDE90133CDE90333CDE90533CDE90733EF
:10055800C0E90133C0E90333C0E90A330993C26132
:1005680080F8203080F83020416380F8383000F07F
:100578007BFBC8B900231148019301A901F050F889
:10058800C8B9104A0D480623CDE9042305257F2460
:100598000422002304A9CDE90654CDE9082300F07C
:1005A8008DFC20B90BB030BD00F062F9E2E700F035
:1005B8005FF90BB030BD00F05BF9E2E77400002092
:1005C800000004500200300470B50446AAB00021AF
:1005D800882208A8CDE90211CDE90411069103F09B
:1005E80063F8274B22689A4201D02AB070BD4FF4B5
:1005F80080424FF0405308A80892269302F0D6F89C
:10060800002837D11F4B2048DA6C204D42F40052A5
:10061800DA64DA6C02F400520092009ADA6C42F062
:100628000402DA64DB6C03F0040301930026012260
:1006380002A90B23CDE902230496019B01F0D2F90C
:10064800134A80204FF40073C5E90403C5E9002666
:100658004FF4006120224FF440532846C5E9026652
:10066800C5E906122B6201F0BFF830B9E564AC6247
:100678002AB070BD00F0FCF8C4E700F0F9F8F5E71F
:100688000000045000100240000800482C00002020
:10069800080002400F4B00B5986C40F001009864C8
:1006A8009B6C83B0002203F00103114601930B20D9
:1006B800019B01F035F80B2001F06EF800221120A3
:1006C800114601F02DF8112003B05DF804EB01F09C
:1006D80063B800BF0010024070B500248AB0CDE9AD
:1006E8000444CDE906442A4B0894DA6C294D42F0BB
:1006F8000402DA64DA6C02F004020092009ADA6CFE
:1007080042F08002DA64DA6C02F080020192019A07
:10071800DA6C42F00102DA64DA6C02F00102029249
:10072800029ADA6C42F00202DA64DB6C03F002032C
:100738000393284622460C21039B01F077FA2246B0
:1007480020214FF0904001F071FA4FF400524FF41D
:10075800041304A92846CDE90423069401F042F9BC
:100768000C2301262846049304A903230793CDE903
:10077800056401F037F9202304A94FF09040CDE932
:100788000436CDE9064401F02DF90AB070BD00BF6A
:10079800001002400008004810B598B0442200211B
:1007A80006A802F081FF00234FF40070CDE9013361
:1007B800CDE90333059301F051FA08B172B6FEE7AB
:1007C8009FED157B4FF4807110220223CDE90912A9
:1007D80006A801210A22CDE91033069316938DED60
:1007E800147B1291139201F019FB034608B172B6FB
:1007F800FEE704210F2403220DEB0100CDE901429D
:10080800CDE90333059301F0E9FD08B172B6FEE7BF
:1008180018B010BDAFF30080070000000200000010
:1008280008B500F0E5F9FFF7B7FFFFF755FFFFF749
:1008380031FFFFF777FE00F009F900F06FF800F0DC
:10084800A7F87F21074800F09FFEC82000F0FAF9BA
:1008580005490448012200F0E1FD044802F062FA6B
:10086800FEE700BF74000020E000002038010020EF
:1008780072B6FEE70A4B1A6E42F001021A661A6E49
:1008880082B002F001020092009A9A6D42F0805202
:100898009A659B6D03F080530193019B02B07047EA
:1008A80000100240FEE700BFFEE700BFFEE700BF02
:1008B800FEE700BFFEE700BF704700BF704700BFFC
:1008C800704700BF00F0ACB9014801F03DB800BF67
:1008D8002C000020014801F037B800BF8801002033
:1008E800014802F009BB00BFE8000020034AD2F823
:1008F800883043F47003C2F88830704700ED00E098
:10090800044B02689A4200D070470348082101F05E
:1009180093B900BF001000400008004800B51B480C
:100928004FF0804289B002604F22002342604FF0AE
:10093800FF32CDE90433CDE90633CDE90133C0E90F
:10094800023203930361836102F056F990B94FF4C0
:1009580080530E48049304A902F01CFA90B90023AE
:100968000A48019301A9039302F072FB28B909B060
:100978005DF804FBFFF77CFFE9E7FFF779FF09B0B3
:100988005DF804FBFFF774FFE9E700BF38010020BA
:1009980000B51248124985B04F220023C0E9001261
:1009A8000122CDE90133C0E902320393836102F0E9
:1009B80023F950B900230948019301A9039302F0D0
:1009C80047FB28B905B05DF804FBFFF751FFF1E7D5
:1009D800FFF74EFF05B05DF804FB00BFE8000020FC
:1009E8000010004000B50368B3F1804F83B005D014
:1009F800144A934210D003B05DF804FB03F50433A6
:100A08009A6D42F001029A659B6D03F00103009311
:100A1800009B03B05DF804FB0B4B996D41F010018E
:100A280099659B6D002203F010030193362011464F
:100A3800019B00F075FE362003B05DF804EB00F072
:100A4800ABBE00BF001000400010024010B50C48BB
:100A58000C4C00234FF4E1310C22C0E90041C0E9FD
:100A68000233C0E90432C0E90633C0E9083302F0B2
:100A7800E9FD00B910BDBDE81040FFF7F9BE00BFA1
:100A8800D00100200044004030B50446ABB000213E
:100A9800882208A8CDE90211CDE90411069102F0D7
:100AA80003FE274B22689A4201D02BB030BD0222A8
:100AB800042308A80892179301F078FE002838D17B
:100AC800204B214D9A6D42F400329A659A6D02F4DA
:100AD80000320092009ADA6C42F00102DA64DB6CB0
:100AE80003F0010301930C220223CDE90223002223
:100AF800019B0323CDE9042302A907234FF090406B
:100B0800069300F06FFF114902220023C5E9001285
:100B1800284610218022C5E90213C5E90533C5E935
:100B280007332A6100F060FE30B92567AC622BB04C
:100B380030BDFFF79DFEC3E7FFF79AFEF5E700BF5C
:100B4800004400400010024088010020800002405C
:100B5800DFF834D0FFF7CAFE0C480D490D4A0023D0
:100B680002E0D458C4500433C4188C42F9D30A4A5A
:100B78000A4C002301E013600432A242FBD302F0C6
:100B88009BFDFFF74DFEFEE70080012000000020DE
:100B98000C00002088370008100000205C020020AC
:100BA800FEE7000038B50F4B1B780BB9012038BDA4
:100BB8000D494FF47A720546B2FBF3F30868B0FBAF
:100BC800F3F000F0F7FD04460028EFD10F2DEDD823
:100BD800024629464FF0FF3000F0A2FD034B2046A5
:100BE8001D6038BD0400002000000020080000201F
:100BF8000A4A136843F4807310B50320136000F0A9
:100C08007DFD0020FFF7CEFF10B10124204610BD66
:100C18000446FFF72FFE204610BD00BF002002400B
:100C2800034A044B11681B780B441360704700BFDC
:100C38005802002004000020014B1868704700BFCC
:100C48005802002038B50446FFF7F6FF631C054636
:100C580002D0044B1B781C44FFF7EEFF401BA04258
:100C6800FAD338BD0400002030B583B000230193C7
:100C7800002800F09D80456D0446002D00F09D8001
:100C8800226893689D0005D5936823F0204323F0DC
:100C98003F0393609368D80019D45A4B5A481B688D
:100CA80091689B09A0FB030321F010419B0921F0E7
:100CB8003F0101335B0041F0805191600193019B3A
:100CC8002BB1019B013B0193019B002BF9D1936848
:100CD800D90070D4636D43F010036365A36D0120E0
:100CE8000343A365936813F0040F636D5CD1DB06BF
:100CF8005AD4636D23F4817343F0020363659368E8
:100D0800DD0710D44149424B89689B680B43414930
:100D180089680B43D90706D43F4965688B6823F473
:100D28007C132B438B60E568636B94F820102B438E
:100D3800A5682B43657E012943EA453343EA01430D
:100D480049D0A16A21B1E56A01F4707129430B43C6
:100D5800D568324929401943D16093681B0714D4D8
:100D6800D16894F83030257E21F480415B0021F071
:100D7800020143EA85330B43D36094F83830012BE2
:100D88002ED0136923F0010313612369012B1AD0B4
:100D9800136B23F00F031363636D23F0030343F016
:100DA8000103636503B030BD636D43F010036365F1
:100DB800012003B030BD002094E7FFF705FCA565CE
:100DC80084F850505CE7116BE36921F00F01013B97
:100DD8000B431363E0E7616A013943EA4143B0E733
:100DE8001169E36B256C21F4FF6121F004012B43A9
:100DF8000B43616C0B43A16C0B4343F0010313617C
:100E0800C3E700BF00000020632D3E05000004502A
:100E180000010450000204500003045007C0F0FF12
:100E2800704700BF08B5806AFFF7FAFF08BD00BF2A
:100E3800704700BF836A5A6D12F0500F10B55A6D93
:100E48001DD1196842F400725A650A6812F0080F39
:100E5800CA681BD012F4406F0DD1CA6894040AD432
:100E68005A6D22F480725A655A6DD10403D45A6DB2
:100E780042F001025A651846FFF71AFB10BDD20668
:100E88000AD4DB6CBDE810405B6B18479007E7D5C8
:100E98001846FFF70DFBF1E71846FFF7C9FF10BD2D
:100EA800806A08B5436D43F040034365836D43F0A2
:100EB80004038365FFF7BCFF08BD00BF2DE9F041BF
:100EC80090F8502082B00346012A4FF000000190AC
:100ED80000F027811C68012083F85000A26812F0F6
:100EE800040C55D14868052840F28E8000F01F0593
:100EF8004FF01F0E82090EFA05FE02F00C0C6FEA85
:100F08000E0E0A6804F13000C2F38462AA4050F859
:100F18000C5005EA0E052A4340F80C20A268570732
:100F280040D5A2680A68A068C50712D4CE68BB4835
:100F3800D4F8B05006F01807F840C2F31207104072
:100F480025EA07052843C4F8B000B548864200F0F2
:100F58009880B4490A4219D0B348B44D8168AA426E
:100F680001F0E07666D0B24DAA4200F0DE80B14DC5
:100F7800AA420BD14A0209D4AF4A944206D18268E8
:100F880022F0E072324342F480028260002003E0E3
:100F98005A6D42F020025A65002283F8502002B0B0
:100FA800BDE8F081A0680A680607BCD4D00D00F03F
:100FB800040004F11405C2F3045C8E682A5807275C
:100FC80007FA0CF706FA0CF622EA070232432A500F
:100FD800D1E90462042EE06804F1600500F0CD80D8
:100FE800C0F3C100400055F826C0944F82400868FD
:100FF8000CEA070700F0F8403843024342F0004289
:1010080045F826200A688EE70238032803D96FF4CA
:10101800F86E062575E78A4A52F820504FF01F0EE1
:10102800AA0905F01F050EFA05FE02F00C0C6FEA7E
:101038000E0E66E70802A9D47F4A944203D002F54F
:1010480000729442A2D178497E488A6822F0E07200
:10105800324342F400028A6002687B499209A1FB8C
:1010680002129209013202EB420292000192019AA5
:10107800002A8BD0019A013A0192019A002AF9D1EB
:1010880084E7002F65D092FAA2F0002800F09F8034
:10109800B0FA80F0013000F01F00092840F2978074
:1010A80092FAA2F0002800F04681B0FA80F00130F0
:1010B800800600F0F84092FAA2F5002D00F0408179
:1010C800B5FA85F5013505F01F05012606FA05F57F
:1010D800284392FAA2F2002A00F03081B2FA82F292
:1010E800551C05F01F0503226FF01D0612FB056253
:1010F800120542F000720243D60D886806F0040615
:1011080004F11405C2F3045200FA02F74FF0070C79
:10111800A8590CFA02F220EA02023A43AA510A68D4
:1011280017E7022002B0BDE8F081C9013FF52EAFF4
:10113800414A944204D002F5007294427FF426AFEB
:1011480039498A6822F0E072324342F080728A603C
:101158001CE7920E013202F01F050120920602F0F0
:10116800F842A840092D40EA020005EB450253D990
:101178001E3A120542F00072BDE70868226E266E1C
:10118800C0F31207C6F384660246002F5ED1C0F38F
:101198008462964200F09F80666E666EC6F384662F
:1011A800964200F08480AE68AE6805F1080CC6F37C
:1011B8008466964200F0A080EE68EE6805F10C07A0
:1011C800C6F38465AA4200F0AD800246ABE692FA07
:1011D800A2F0002800F0B880B0FA80F00130800654
:1011E80000F0F84092FAA2F5002D00F0AB80B5FAB5
:1011F80085F5013505F01F05012606FA05F5284392
:1012080092FAA2F2002A00F09380B2FA82F2013236
:1012180002F01F0202EB420212056CE7FFFF070013
:1012280000007F400000088000030450000052C7FF
:10123800000084CB010000800000045000F0FF0390
:101248006837000800000020632D3E0590FAA0F7DB
:101258001FB1B7FA87F7BE423DD0666E666EC6F319
:10126800846690FAA0F705F1080CE6461FB1B7FAB4
:1012780087F7B7421DD0AE68AE68C6F3846690FAA9
:10128800A0FE05F10C07B846BEF1000F03D0BEFA68
:101298008EFEB64532D0EE68ED68C5F3846590FAE7
:1012A800A0F6002E3FF43FAEB6FA86F28AE705F1C3
:1012B800080E626E22F0004262660868AA68AE688C
:1012C800C0F31207F446C6F384660246002FD6D14F
:1012D800C0F384626DE7226E22F00042226608683D
:1012E800626E666EC0F31207C6F384660246002F6C
:1012F800B7D1C0F3846253E705F10C08DCF800208D
:1013080022F00042CCF800200868EA68ED68C0F3D3
:1013180012064746C5F384650246002EBFD1C0F3C6
:1013280084624FE73A6822F000423A600A68FAE5B8
:101338004FF44012DFE64FF08060BCE6044ADAE67C
:101348000225C5E602255AE74FF080604AE700BF4C
:10135800000050FE70B582B00022036801929A68BE
:10136800D2072CD49968284A114204462AD19A688F
:10137800264922F0004222F03F0242F001029A6020
:101388008B681B0229D4FFF757FC23681A68D60715
:10139800054614D41E4E9A68D00704D49A68324081
:1013A80042F001029A60FFF747FC431B022B2368B7
:1013B80002D91A68D10705D51A68D207EBD50020DB
:1013C80002B070BD636D43F010036365A36D012027
:1013D80043F00103A36502B070BD0E4B0E4A1B68B3
:1013E8009B09A2FB03239B09013303EB43039B00E7
:1013F8000193019B002BC6D0019B013B0193019BEC
:10140800002BF9D1BFE700BF3F0000800003045064
:10141800C0FFFF7F00000020632D3E052DE9F0414D
:10142800364B06689B680D46B168490717D41746BE
:1014380090F85020012A044611D003F01F08304BC1
:1014480001209E4284F850000CD040F2212121FA5C
:1014580008F1014006D184F85010BDE8F08102205F
:10146800BDE8F0812046FFF775FF00283CD1636D89
:10147800216823F4706323F0010343F480736365E8
:10148800204B994235D0636D23F480136365636DF7
:10149800E06C13F4805318BFA36D2A4618BF23F0DD
:1014A8000603194DA365C562184D0563184D4563BC
:1014B8001C250D60002584F850504D6845F0100536
:1014C8004D60CD6845F001053B46CD60403100F0E8
:1014D800F7F92268936823F0004323F03F0343F0B1
:1014E80004039360BDE8F081002384F85030BDE820
:1014F800F081B8F1000FCAD1C5E700BF000304505E
:1015080000020450000104503D0E00082D0E000892
:10151800A90E000838B503689A68950702D59B6834
:10152800002038BD9A68D407FAD59A6802F00D02EF
:10153800012A044609D0636D43F010036365A36D67
:1015480043F00103A365012038BD9A6822F00042E8
:1015580022F03F02032142F002029A601960FFF76D
:101568006BFB23689B68D907054603D4D8E79B68BB
:10157800DB07D5D5FFF760FB401B02282368F6D9A7
:101588009A68D207F3D5D6E730B590F8503083B0D3
:101598000022012B01923FD0012380F850300446ED
:1015A8000D46FFF7B7FF636DE0B923F4885323F0C6
:1015B8000203226843F002036365936823F0404303
:1015C80005F0804123F03F030B4343F00043936051
:1015D8009368002B0EDB636D23F0030343F00103D4
:1015E800636502E043F010036365002384F850301C
:1015F80003B030BD019B01330193019BB3F5912FDB
:10160800E6D3636D23F01203002243F010036365F1
:1016180084F850200120EBE7022003B030BD00BF62
:10162800F0B490F850200E68012A9AB044D00346CE
:101638002E4D1C6800220120AC42169283F85000FF
:10164800179208D0596D83F8502041F02001596550
:101658001AB0F0BC7047264A906840070BD5A268BC
:101668005A6D42F0200201205A65002283F850206A
:101678001AB0F0BC7047A0684707F1D406B31D4FF5
:101688004D68B86820F46040284393F8305040EA29
:101698004530B860A06892680243174880680243E2
:1016A800D50720D4B8688A6820F47161324321F0E4
:1016B8000F010A43BA6016E002201AB0F0BC704766
:1016C8000C48816821F4604181600B49A4689268E4
:1016D800896822430A43D40705D4826822F47162D8
:1016E80022F00F0282600020BFE700BF0000045014
:1016F8000001045000030450000204500749CA685E
:1017080003024FF6FF0003F4E0630240134343F083
:10171800BF6343F40033CB60704700BF00ED00E0C7
:101728001B4BDB68C3F3022300B5C3F1070EBEF100
:10173800040F03F1040C28BF4FF0040EBCF1060F90
:101748001CD9A3F1030C4FF0FF3303FA0CF322EA80
:1017580003024FF0FF3303FA0EF321EA030303FAFF
:101768000CF313431B010028DBB20ADB00F16040D5
:1017780000F5614080F800335DF804FB00229446D0
:10178800E7E7044A00F00F00024413765DF804FB13
:1017980000ED00E0FCEC00E0002807DB044A41090A
:1017A800012300F01F00834042F82130704700BF3A
:1017B80000E100E00138B0F1807F01D301207047DB
:1017C80010B44FF0E023074C58614FF0F00C84F848
:1017D80023C00022072110469A615DF8044B196165
:1017E800704700BF00ED00E0002850D0F0B42E4A4A
:1017F80004689442034641D92C492D4A2D4D214471
:10180800A2FB012109098900022283F82520D3E9D6
:1018180002621F6920681D6432433A435F69596454
:101828003A439F693A43DF693A431F6A20F4FF400D
:1018380020F070003A430243B6F5804F226014D07E
:10184800586801F01C010F228A4088401A498D42CD
:101858006FEA02021DD0D1F8A8442240C1F8A8249A
:10186800D1F8A8240243C1F8A82400200122D86393
:1018780083F8240083F82520F0BC70470F490C4AF0
:101888000D4D2144A2FB012109098900BCE7012073
:101898007047D5F8A8100A40C5F8A820D5F8A820A0
:1018A8000243C5F8A820E0E707040240F8FBFDBFA3
:1018B800CDCCCCCC0004024000000240F8FFFDBFB4
:1018C80070B490F82440012C0BD0012480F82440F7
:1018D80090F82540012C5FFA84FC05D0002380F89D
:1018E8002430022070BC7047022580F82550046817
:1018F8000025C5632668456C26F00106266005F0BC
:101908001C05066C0CFA05F5756063608368102B7E
:10191800036B0BBFA260A160E160E26053B1236872
:1019280043F00E032360236843F001030020236083
:1019380070BC7047236823F004032360236843F0D6
:101948000A032360EFE700BF70B4436C066C0568B8
:1019580031682C6803F01C0304229A400A420ED016
:1019680014F0040F0BD02B689B0603D42B6823F0CC
:1019780004032B60036B7260CBB170BC1847022262
:101988009A400A4215D014F0020F12D02B6899061B
:1019980006D42B6823F00A032B60012380F8253036
:1019A800C36A7260002180F82410002BE5D170BC56
:1019B800704708229A400A42F9D02207F7D52A68C8
:1019C800416B22F00E022A60012202FA03F300247E
:1019D8007360C26380F8244080F825200029E6D08F
:1019E80070BC08472DE9F04F0C6885B0002C00F05A
:1019F8009C8000234FF0010B0BFA03FE1EEA040A39
:101A080000F08E804D6805F003024FEA430C032670
:101A180002F1FF3806FA0CF7B8F1010F6FEA070771
:101A280040F28680032A40F0C180D0F82C8028EA52
:101A38000E08C5F3C00E0EFA03FE4EEA080EC0F8F3
:101A48002CE002FA0CF2D0F800C00CEA07073A437F
:101A580015F4403F026063D06C4F3A6E42F00102C9
:101A68003A663A6E02F001020392039A23F00302E7
:101A780002F1804202F5803203F0030C97684FEAC6
:101A88008C0C0F2606FA0CFEB0F1904F27EA0E07D1
:101A980022D05F4EB04200F09C805E4EB04200F013
:101AA8009F80DFF878E1704500F08C80DFF870E106
:101AB800704500F09C80DFF86CE1704500F09E8076
:101AC800DFF864E170450CBF4FF0060E4FF0070ECB
:101AD8000EFA0CFC47EA0C0797604F4A9268EE0230
:101AE8006FEA0A074C4E54BF3A404AEA0202B26013
:101AF800F268AE02484E54BF3A404AEA0202F26027
:101B08007268AE03444E54BF3A404AEA0202726019
:101B18003268ED03404D54BF3A404AEA02022A6057
:101B2800013334FA03F27FF467AF05B0BDE8F08FF4
:101B3800D0F80890CE6809EA070906FA0CF848EACE
:101B48000908C0F80880D0F804808E6828EA0E08D2
:101B5800C5F3001E0EFA03FE4EEA080EC0F804E0B4
:101B6800D0F80C8006FA0CFE08EA07084EEA080EC0
:101B7800022AC0F80CE07FF464AF0E694FEAD3087C
:101B880003F0070E00EB88084FEA8E0E06FA0EF6F1
:101B9800D8F8209001960F2606FA0EFE019E29EA33
:101BA8000E0946EA090EC8F820E04AE7D0F80C808A
:101BB8008E6808EA070806FA0CFE4EEA080EC0F816
:101BC8000CE03EE74FF0030E0EFA0CFC47EA0C0758
:101BD80082E74FF0010E0EFA0CFC47EA0C077BE790
:101BE8004FF0020E0EFA0CFC47EA0C0774E74FF0B0
:101BF800040E0EFA0CFC47EA0C076DE74FF0050ED1
:101C08000EFA0CFC47EA0C0766E700BF001002401A
:101C1800000400480008004800040140000C004887
:101C28000010004800140048001800480AB18161FB
:101C380070478162704700BF436901EA030221EAE5
:101C4800030141EA02418161704700BF024B1868F5
:101C580000F4C060704700BF00700040B0F5007F1E
:101C68000ED01B4A136803F4C063B3F5806F05D028
:101C7800136823F4C06343F4806313600020704743
:101C880013490B6803F4C063B3F5007FF6D00B6803
:101C9800104A23F4C06343F400730B6013680E4AC0
:101CA800322000FB03F34869A2FB03239B0C400589
:101CB80003F1010306D500E023B14A69520503F197
:101CC800FF33F9D4024B5B695B05D7D50320704716
:101CD800007000400000002083DE1B4330B5204D1B
:101CE800AB6DDB0083B004461AD5FFF7AFFFB0F544
:101CF800007F27D0802C2CD82FD0A4F17004B4FA00
:101D080084F4640917490B6823F0070323430B6025
:101D1800086800F00700001B18BF012003B030BDA1
:101D2800AB6D43F08053AB65AB6D03F0805301930B
:101D3800019BFFF78BFFAB6DB0F5007F23F080535D
:101D4800AB65D7D1802C06D9A12C34BF012402243D
:101D5800D8E70324D6E70024D4E70224D2E700BF5B
:101D68000010024000200240284A9368D26813F00D
:101D78000C0305D00C2B35D0042B41D124487047D7
:101D8800224A1168090754BFD2F8942012682149E1
:101D980054BFC2F30322C2F3031251F8220003B363
:101DA8000C2B1DD1194BDB6803F00303022B25D044
:101DB800194A032B08BF1046144BD968DA68DB6848
:101DC800C3F34163C2F30622C1F30211013300FBDE
:101DD80002F201315B00B2FBF1F2B2FBF3F07047A3
:101DE8000020704702F00302012AC9D0074BDB68C4
:101DF80003F00303022B4FF00000D9D10448DBE7BE
:101E0800082B054818BF0020704700BF001002408B
:101E18000024F4002037000800127A00002800F09F
:101E2800F0812DE9F043A74A03689568D66804460F
:101E3800D80683B005F00C0506F003062ED5002D54
:101E480000F000810C2D00F0FA80A3699D4F002B53
:101E580000F07E813B6843F001033B60FEF7ECFE37
:101E6800804606E0FEF7E8FEA0EB0800022800F234
:101E78007F813B689B07F5D53B6843F008033B60CF
:101E88003B68226A23F0F00313433B607B68E269F6
:101E980023F47F4343EA02237B602368D90700F1D8
:101EA800A580990723D5042D00F042810C2D00F060
:101EB8003C81E368834E002B00F07581336843F45E
:101EC80080733360FEF7B8FE074605E0FEF7B4FE00
:101ED800C01B022800F24C8133685B05F6D5736895
:101EE800226923F0F85343EA0263736023681907F1
:101EF80019D56369734E002B00F00381D6F894302E
:101F080043F00103C6F89430FEF796FE074605E055
:101F1800FEF792FEC01B022800F22A81D6F8943000
:101F28009A07F5D5236858073ED5664B9A6DD100B8
:101F380000F137819A6D42F080529A659B6D03F0EB
:101F480080530193019B01265F4F3B68DA0540F1FE
:101F58007281A368012B00F03881052B00F0EC8119
:101F6800584FD7F8902022F00102C7F89020D7F8F0
:101F7800902022F00402C7F89020002B40F02C811A
:101F8800FEF75AFE41F28839804606E0FEF754FE15
:101F9800A0EB0800484500F2EB80D7F8903099078D
:101FA800F4D4002E40F05981A36ADBB1022B00F073
:101FB8006D810C2D00F09580424C236823F08073CE
:101FC8002360FEF739FE054605E0FEF735FE401BA7
:101FD800022800F2CD8023689B01F6D4E2683B4BCF
:101FE8001340E360002003B0BDE8F083082D7ED0E5
:101FF8000C2D7AD06368B3F5803F00F0BD80B3F54F
:10200800A02F00F036812F4F3A6822F480323A60D0
:102018003A6822F480223A60002B40F0B280FEF742
:102028000BFE804606E0FEF707FEA0EB08006428DA
:1020380000F29E803B689803F5D4236831E7012EAF
:102048007FF403AF1F4B1B68990747D41D4B206AC9
:102058001A68120756BFD3F894301B681B0903F09F
:10206800F003984200F2CF80164B1A6842F008023B
:102078001A601A6822F0F00202431A605A68E1698D
:1020880022F47F4242EA01225A60002D00F0EB80E0
:10209800FFF76AFE0B4B0E4A9B68C3F30313D35C2E
:1020A8000C4A03F01F0320FA03F310680A4A13606E
:1020B800FEF778FD002896D12368D9077FF5F1AEA1
:1020C80094E700BF0010024000700040FCFFEEFEE5
:1020D800583700080800002000000020A369002BE2
:1020E800B4D1012003B0BDE8F083032E82D1994A10
:1020F800126892037FF5D5AE6268002A7FF4D1AEEC
:10210800EFE7D6F8943023F00103C6F89430FEF7D1
:1021180093FD074604E0FEF78FFDC01B022827D871
:10212800D6F894309B07F6D4FCE6022E7FF4C1AEB5
:10213800884A1268520502D5E268002AD1D085493A
:1021480020694A6822F0F85242EA00624A60CEE604
:102158003B6823F001033B60FEF76EFD80463B6859
:102168009807A9D5FEF768FDA0EB08000228F6D964
:10217800032003B0BDE8F083764A136843F4803344
:102188001360FEF759FDDFF8CC81074604E0FEF73F
:1021980053FDC01B6428EBD8D8F800309B03F6D554
:1021A8004BE70026D0E6336823F480733360FEF7EC
:1021B80043FD074604E0FEF73FFDC01B0228D7D8C1
:1021C80033685805F7D4236891E6624AD2F890300C
:1021D80043F00103C2F89030FEF72EFDDFF874815A
:1021E800074641F2883904E0FEF726FDC01B484542
:1021F800BED8D8F890309807F6D5002E3FF4D4AE64
:102208002BE001207047FFF769FD00287FF469AFD4
:10221800504B1A6842F008021A601A68216A22F0C4
:10222800F0020A431A605A68E16922F47F4242EADE
:1022380001225A602CE73B6843F480733B60FEF749
:10224800FBFC80463B68DB053FF583AEFEF7F4FCFC
:10225800A0EB08000228F5D98AE73E4A936D23F0DF
:1022680080539365A0E6FFF739FD00283FF410AFCF
:1022780037E703F18043A3F53C331A6842F4802220
:102288001A601A6842F480321A607AE7314EE26ABC
:10229800F36803F00301914260D00C2D3FF421AFA5
:1022A8002C4D2B685A013FF51CAF2B68DB003FF51E
:1022B80018AF2B6823F080732B60FEF7BDFC064631
:1022C80005E0FEF7B9FC801B02283FF651AF2B68EA
:1022D8009F01F6D4E968204BE26A1E4E0B40134377
:1022E800D4E90C2143EA0123D4E90E01013A43EA77
:1022F8000213226C0009490843EA40430139520895
:1023080043EA4153013A43EA4263EB602B6843F0E6
:1023180080732B60EB6843F08073EB60FEF78CFCF6
:10232800044605E0FEF788FC001B02283FF620AFB4
:1023380033689801F6D555E6064BD3F8902042F05D
:102348000402C3F89020D3F8902042F00102C3F8A9
:10235800902041E7001002408C809DF9216B03F02A
:1023680070020139B2EB011F97D1616B03F4FE4291
:10237800B2EB012F91D1A26B073A03F4003118BFD9
:102388000122914289D1E26B520803F4C001013A5B
:10239800B1EB425F81D1226C520803F0C063013A6D
:1023A800B3EB426F7FF479AF336899013FF51AAE0A
:1023B800336843F080733360F36843F08073F360ED
:1023C800FEF73AFC044605E0FEF736FC031B022B39
:1023D8003FF6CEAE33689A01F6D503E6002800F042
:1023E800A080544A136803F007038B422DE9F0419B
:1023F8000D4604460CD2136823F007030B43136001
:10240800136803F007038B4202D00120BDE8F08176
:102418002368990703F0010270D5474EA068B16898
:1024280001F0F001884204D9B16821F0F0010143BC
:10243800B16032B36268404B032A1B6865D0022A38
:102448006CD0002A71D19E07DFD53B4EB36823F0CC
:1024580003031343B360FEF7EFFB41F288380746E6
:1024680004E0FEF7E9FBC01B40455CD8B36862682E
:1024780003F00C03B3EB820FF3D12368990706D559
:10248800A0682D498A6802F0F002824240D82949A2
:102498000A6802F00702AA4209D90A6822F007026C
:1024A8002A430A600A6802F00702AA42ADD15A0715
:1024B80006D52149E0688A6822F4E06202438A600E
:1024C8001B0707D51C4A2169936823F4605343EA24
:1024D800C1039360FFF748FC174A184C92681849E3
:1024E800C2F303120346A25C164802F01F02D3404F
:1024F800BDE8F04100680B60FEF754BB002AC6D067
:1025080062680D4B032A1B6899D19B019DD47CE717
:102518008A6822F0F00202438A60B8E79F0394D4E5
:1025280073E701207047032070E758057FF56DAF0A
:102538008BE700BF00200240001002405837000817
:102548000000002008000020054B064A9B68064949
:10255800C3F302230868D35C03F01F03D840704715
:10256800001002405037000800000020054B064AC2
:102578009B680649C3F3C2230868D35C03F01F03B2
:10258800D840704700100240503700080000002073
:10259800454AF8B5D6680D46B1070446006806D026
:1025A800D16801F0030181424CD00120F8BD022816
:1025B80059D0032850D00128F7D112689307F5D5D0
:1025C8003949CA6822F0730242EA00036268013A94
:1025D80043EA0213CB60344E336823F080633360E0
:1025E800FEF72AFB074604E0FEF726FBC31B022B77
:1025F8003DD833681A01F7D4A3681A02002D38D1E0
:102608003369E16823F41F3323F440730909134342
:1026180043EA41433361244D2B6843F080632B60C8
:10262800FEF70AFB064604E0FEF706FB801B0228BD
:102638001DD82B681B01F7D52B69A269134300200D
:102648002B61F8BD0029B0D0D3686268C3F30213C8
:1026580001339342A9D1BEE711688E03B0D4126842
:102668005103A2D5ACE7126857059ED5A8E7032009
:10267800F8BD012D33690BD0616923F0C0634908A7
:1026880023F4FE430139134343EA41633361C2E74C
:10269800216923F4C003490823F4FE430139134395
:1026A80043EA41533361B6E7001002403E4AF8B5A9
:1026B800D6680D46B1070446006806D0D16801F017
:1026C800030181424CD00120F8BD022859D00328CB
:1026D80050D00128F7D112689307F5D53249CA6856
:1026E80022F0730242EA00036268013A43EA0213E5
:1026F800CB602D4E336823F080533360FEF79CFA8D
:10270800074604E0FEF798FAC31B022B3DD833684E
:102718009A00F7D4A3681A02002D38D17369E168CA
:1027280023F41F3323F440730909134343EA414355
:1027380073611D4D2B6843F080532B60FEF77CFAC4
:10274800064604E0FEF778FA801B02281DD82B689D
:102758009B00F7D56B696269134300206B61F8BD74
:102768000029B0D0D3686268C3F3021301339342DF
:10277800A9D1BEE711688E03B0D412685103A2D55F
:10278800ACE7126857059ED5A8E70320F8BD736922
:10279800216923F0C063490823F4FE430139134338
:1027A80043EA41637361C4E7001002402DE9F04336
:1027B800036813F4006683B0044616D0416EB1F581
:1027C800000F00F0DD8100F21781002900F0AC81D4
:1027D800B1F5800F40F0C68100212030FFF766FF79
:1027E80006462368002E00F0D881D80440F11581F0
:1027F800A16EB1F1007F00F0C98100F26F8100295C
:1028080000F09B81B1F1807F40F0AE81002104F19E
:102818002000FFF74BFF23680746002F40F0658133
:10282800B349A06ED1F8882022F040720243C1F863
:102838008820990300F1F580DA0708D5AC49A06B28
:10284800D1F8882022F003020243C1F888209F07AC
:1028580008D5A749E06BD1F8882022F00C02024382
:10286800C1F888205D0708D5A149206CD1F88820D7
:1028780022F030020243C1F88820180708D59C4985
:10288800606CD1F8882022F0C0020243C1F8882089
:10289800D90608D59649A06CD1F8882022F4407250
:1028A8000243C1F888209A0608D59149E06CD1F80E
:1028B800882022F440620243C1F888209F0508D589
:1028C8008B49E06DD1F8882022F440220243C1F8F8
:1028D80088205D0508D58649206ED1F8882022F425
:1028E80040120243C1F88820580608D58049206D57
:1028F800D1F8882022F440520243C1F888201906F2
:1029080008D57B49606DD1F8882022F44042024303
:10291800C1F88820DA0508D57549A06DD1F8882056
:1029280022F440320243C1F888209F0410D5704930
:10293800E06ED1F8882022F040620243B0F1006FC7
:10294800C1F8882000F00481B0F1806F00F0328176
:102958001D0310D56649206FD1F8882022F0406207
:102968000243B0F1006FC1F8882000F0F680B0F1A2
:10297800806F00F02981580310D55D49606FD1F848
:10298800882022F040620243B0F1006FC1F888202D
:1029980000F0D980B0F1806F00F02081590410D583
:1029A8005348A16FD0F8882022F040520A43B1F171
:1029B800805FC0F8882000F0D980B1F1005F00F096
:1029C800EE801A0408D54A49E06FD1F8882022F031
:1029D80080420243C1F88820DB0309D5444AD4F871
:1029E8008010D2F8883023F000430B43C2F88830B7
:1029F800304603B0BDE8F083B1F5400F40F0B28037
:102A08003B48D0F8882022F440020A43C0F88820C6
:102A1800D8044FF000063FF5EBAE374699037FF533
:102A28000BAF334B9A6DD20066D54FF00008314D8D
:102A38002B6843F480732B60FEF7FEF8814605E0AF
:102A4800FEF7FAF8A0EB0903022B61D82B68DB0527
:102A5800F6D5002F40F0CC80254DD4F88420D5F849
:102A6800903013F4407326D0934224D0D5F89010B8
:102A7800D5F8903043F48033C5F89030D5F89030CD
:102A880023F48033C5F89030C80721F44073C5F8A3
:102A9800903010D5FEF7D0F841F28839074604E0A7
:102AA800FEF7CAF8C01B484532D8D5F890309907C8
:102AB800F6D5D4F884200E49D1F8903023F4407329
:102AC8001343C1F890302368B8F1000F3FF4B4AE57
:102AD80007498A6D22F080528A65ADE6B1F1407FE0
:102AE80042D13746002F3FF49BAE3E4696E700BFE3
:102AF80000100240007000409A6D42F080529A65C2
:102B08009B6D03F080530193019B4FF001088EE702
:102B180003262368B8F1000F3FF48EAE35498A6D5D
:102B280022F080528A6587E60430FFF731FD0646B9
:102B38002368002E7FF459AE2FE0201DFFF728FDF3
:102B48002368074669E6CA6842F48012CA6025E726
:102B5800CA6842F48012CA60FAE6CA6842F480126F
:102B6800CA6008E7012640E6012656E70221201D33
:102B7800FFF70EFD236800283FF423AF064620E741
:102B88001C48C26842F48032C26039E71949CA68F1
:102B980042F48032CA603746A4E7616E30E702210A
:102BA80004F12000FFF782FD236800283FF409AFF5
:102BB800064606E70121201DFFF7EAFC23680028E6
:102BC8003FF4C6AE0646C3E60121201DFFF7E0FC30
:102BD800236800283FF4CFAE0646CCE60121201D2D
:102BE800FFF7D6FC236800283FF4D8AE0646D5E6A2
:102BF8003E468EE700100240002800F08C8038B571
:102C080090F83D30044603F0FF02002B78D023688B
:102C18004249022284F83D208B421A685CD0B3F105
:102C2800804F24D0A1F594318B4220D001F58061EA
:102C38008B421CD001F580618B4218D001F594318C
:102C48008B4249D001F540618B425ED034498B42BA
:102C58005BD001F580618B4257D0A5696168E06857
:102C680022F080022A431A60D862996210E0A168B3
:102C7800206922F070020A4322F44072A1690243DB
:102C880022F08002E0680A4361681A60D86299629B
:102C980001225A611A69D20703D51A6922F0010282
:102CA8001A61012384F8483084F83E3084F83F30B4
:102CB80084F8403084F8413084F8423084F8433056
:102CC80084F8443084F8453084F8463084F8473036
:102CD80084F83D30002038BDA068216922F07002D8
:102CE800024322F440720A43A16922F080020A4397
:102CF8001A60E268DA6262689A6262691A63C7E710
:102D080080F83C20FDF76EFE81E72069A16922F476
:102D180040720243E9E70120704700BF002C0140E0
:102D28000044014090F83D30012B23D10368174A35
:102D38000221934280F83D101ED0B3F1804F1BD082
:102D4800A2F59432934217D002F58062934213D0D1
:102D580002F5806293420FD002F5943293420BD071
:102D680002F54062934207D01A6842F001021A60E5
:102D780000207047012070479968054A0A40062AD2
:102D8800F6D0B2F5803FEFD100207047002C01400B
:102D98000700010090F83C30012B6FD0024630B498
:102DA8000223046882F83D30012082F83C00A568BF
:102DB8004C4B2B40A3600B68602B61D024D8402B70
:102DC80077D04AD9502B17D14B68C868216A21F0AF
:102DD8000A011943236A23F001032362A36923F03C
:102DE800F00343EA0013A3612162A36823F0700390
:102DF80043F05703A36000200121002382F83D100F
:102E080082F83C3030BC7047B3F5805FF3D0B3F53F
:102E1800005F10D1D1E90153A0682B43CD6820F49D
:102E28007F4143EA05230B43A360A36843F480432F
:102E3800A3600020E0E7702BDED1D1E90153A06840
:102E48002B43CD6820F47F4143EA05230B43A3605D
:102E5800A36843F07703A360CDE7202B02D009D9FC
:102E6800302BC9D1A16821F070010B4343F007034F
:102E7800A360C0E733F01001BED1F3E7022070472A
:102E8800236A4D68C868216A21F010012162A1698E
:102E980023F0A00321F4704143EA051341EA00310D
:102EA800A1612362A36823F0700343F06703A36062
:102EB800A1E74B68C868216A21F00A011943236A0F
:102EC80023F001032362A36923F0F00343EA00130C
:102ED800A3612162A36823F0700343F04703A36052
:102EE80089E700BF8800FEFF704700BF704700BF3A
:102EF800704700BF704700BFF8B50368DE681C69FB
:102F0800A107054601D5B20757D4670701D5700751
:102F180040D4210701D532072AD4E70601D5F006A7
:102F280013D4E10701D5F20765D414F4025F04F461
:102F3800807752D0330666D4600601D5710673D403
:102F4800A20601D5B3064DD4F8BD2B686FF0100268
:102F58001A6108222A77DB6913F4407F284674D166
:102F6800FFF7C2FF2846FFF7C3FF00232B77D8E7F8
:102F78002B686FF008021A6104222A77DB699B0725
:102F880028465FD1FFF7B0FF2846FFF7B1FF0023BF
:102F98002B77C2E72B686FF004021A6102222A77A6
:102FA8009B6913F4407F284649D1FFF79DFF2846C7
:102FB800FFF79EFF00232B77ABE76FF002021A6141
:102FC800012202779B699B0736D1FFF78DFF2846C0
:102FD800FFF78EFF00232B7797E7002FACD037063B
:102FE8001AD4A9E72B686FF020021A612846BDE8B9
:102FF800F84000F07DB82B686FF001021A6128468E
:10300800FDF77EFC91E72B686FF402521A6128469F
:1030180000F070F8002F8FD02B686FF480721A615F
:10302800284600F069F887E72B686FF040021A61BC
:103038002846FFF75FFF83E7FFF758FFCAE7FFF768
:1030480055FFB7E7FFF752FFA1E7FFF74FFF8CE700
:1030580090F83C20012A44D0026870B40346224EFE
:10306800022083F83D00B24250680D68946826D06B
:1030780006F50066B2422BD020F070002843B2F16A
:10308800804F50600ED0194882420BD000F5806006
:10309800824207D000F58060824203D000F59A3062
:1030A800824204D1896824F080040C439460002093
:1030B800012283F83D2083F83C0070BC70474E68BD
:1030C80020F47000304320F0700028435060E9E796
:1030D8004E6820F47000304320F0700005435560BE
:1030E800E0E70220704700BF002C014000040040C8
:1030F800704700BF704700BF704700BF38B504462F
:1031080003688268006961691D6802430A43E069CF
:103118008149024329400A431A605A68E16822F447
:1031280040520A437D495A608B42A26999683FD050
:10313800256A21F430612A430A4379499A608B420F
:1031480015D1784BD3F8883003F00303022B00F035
:103158008D80032B77D0012B6DD0B0F5004F00F098
:10316800CF80FFF703FA002872D100201CE06E4AD6
:1031780093420FD16B4BD3F8883003F00C030C2B20
:1031880011D8DFE803F082101010581010107310D7
:1031980010106000654A93427DD0654A93423FD043
:1031A800644A934267D001200023C4E91A3338BD2A
:1031B80021F430615B480A439A60D0F8883003F400
:1031C8004063B3F5006F7ED007D823B3B3F5806FA3
:1031D800E9D1FEF7C9FD28B9C7E7B3F5406FE2D1D9
:1031E8004FF40040626802EB42038342DBD8B0EB45
:1031F800023FD8D8510800238C464FF480751946F1
:10320800E0FB05C16046FCF7DBFF4B4BA0F54072C5
:103218009A42C8D827E0FFF797F90028E2D1A4E737
:10322800404BD3F8883003F0C003802B1ED03FD822
:103238005BB3402BB7D1B0F5004F69D0FEF794FDD2
:1032480091E7302BAFD1B0F5004F5ED04FF400407E
:1032580063684FF6EF7200EB5300B0FBF3F0A0F198
:10326800100393429FD82368D8607EE7B0F5004FDB
:1032780049D03248ECE72B4BD3F8883003F440733D
:10328800B3F5007FF2D01AD8ABB9B0F5004F1CD017
:10329800FFF75AF967E7234BD3F8883003F0300378
:1032A800202BE3D0CDD8002BEFD0102BC3D07AE75A
:1032B800C02BC8D077E7B3F5807FBCD073E7B3F5F0
:1032C800407FC0D06FE71D488CE7FFF73DF9002825
:1032D8003FF44BAF400063684FF6EF7200EB5300CA
:1032E800B0FBF3F3A3F1100191423FF65CAF23F07A
:1032F8000F02216892B2C3F342031343CB6034E751
:10330800FFF734F9E3E70E48E5E74FF48030E2E7EA
:10331800FEF72AFDDBE700BFF369FFEF00800040FE
:1033280000380140001002400044004000480040BE
:10333800004C004000500040FFFC0F000024F40047
:103348000048E801436A1A0710B406D50168446BBF
:103358004A6822F4004222434A60DC0706D5016825
:10336800846A4A6822F4003222434A60990706D5E3
:103378000168C46A4A6822F4803222434A605A07C4
:1033880006D50168046B4A6822F4802222434A6009
:10339800DC0606D50168846B8A6822F480522243D1
:1033A8008A60990606D50168C46B8A6822F40052BF
:1033B80022438A605A0609D50168046C4A6822F4D7
:1033C80080122243B4F5801F4A600BD01B0606D535
:1033D8000268816C536823F400230B4353605DF843
:1033E800044B70474A68446C22F4C00222434A6086
:1033F800ECE700BF38B500230446C0F88430FDF779
:103408001BFC226813681B0705460ED4136859076E
:103418002FD400232022E2671846C4F880202366B0
:103428006366002384F8783038BDD3699802EDD4F8
:103438000CE0196849071A4605D5D969080749D41F
:10344800D969090574D4DB699802DFD4FDF7F4FB68
:10345800431BB3F1007F2368EBD353E8002F22F01E
:10346800800243E800210029F7D12023E3670320E5
:10347800D7E7D3695B02CCD40DE01A68500707D5AB
:10348800DA69110700F18280DA69120500F1AC806F
:10349800DB695B02BDD4FDF7CFFB431BB3F1007FB3
:1034A8002368EAD353E8002F22F4907243E80021FE
:1034B8000029F7D103F1080252E8002F22F0010297
:1034C80003F1080040E800210029F3D12023C4F8C3
:1034D8008030CCE708221A6253E8002F22F4907259
:1034E80043E800210029F7D103F1080252E8002F30
:1034F80022F0010203F1080040E800210029F3D17D
:10350800226E012A0BD0002220200821C4F8800056
:10351800A266226684F87820C4F884109DE753E8F0
:10352800002F22F0100243E800210029F7D1EAE732
:103538004FF400621A6253E8002F22F4907243E8B5
:1035480000210029F7D103F1080252E8002F22F0E8
:10355800010203F1080040E800210029F3D1226E9E
:10356800012A0AD000222021C4F88010A26622660F
:1035780084F87820C4F884106FE753E8002F22F00D
:10358800100243E800210029F7D1EBE708221A626C
:1035980053E8002F22F4907243E800210029F7D164
:1035A80003F1080252E8002F22F0010203F108009B
:1035B80040E800210029F3D1226E012A0BD0002215
:1035C80020200821C4F88000A266226684F87820AA
:1035D800C4F8841066E753E8002F22F0100243E88D
:1035E80000210029F7D1EAE74FF400621A6253E894
:1035F800002F22F4907243E800210029F7D103F14B
:10360800080252E8002F22F0010203F1080040E806
:1036180000210029F3D1226E012A0AD0002220219C
:10362800C4F88010A266226684F87820C4F8841052
:1036380038E753E8002F22F0100243E80021002960
:10364800F7D1EBE770B3C36F10B504462BB322680C
:10365800616A2423E367136823F001031360C1B987
:103668002046FFF74BFD012811D023685A6822F441
:1036780090425A609A6822F02A029A601A6842F0C8
:10368800010220461A60BDE81040FFF7B3BE0120D2
:1036980010BD2046FFF756FEE2E780F87830FDF7C8
:1036A800F3F9D4E70120704702440346934200D15E
:1036B800704703F8011BF9E770B50D4D0D4C641BFD
:1036C800A4100026A64209D10B4D0C4C00F018F8A6
:1036D800641BA4100026A64205D170BD55F8043B12
:1036E80098470136EEE755F8043B98470136F2E76C
:1036F80080370008803700088037000884370008C2
:10370800F8B500BFF8BC08BC9E467047F8B500BFC6
:08371800F8BC08BC9E46704796
:10372000A0860100400D0300801A060000350C0041
:1037300040420F0080841E0000093D0000127A0004
:103740000024F40000366E010048E801006CDC0241
:10375000000000000102030400000000000000005F
:1037600001020304060708090C0000001200000013
:08377000180000000001000038
:0837780080CAFF7F0100000080
:04378000AD0100088F
:0437840089010008AF
:0C37880000093D000100000010000000DE
:0400000508000B598B
:00000001FF
